{
    "_format": "hh-sol-artifact-1",
    "contractName": "Staking",
    "sourceName": "contracts/Staking.sol",
    "abi": [
        {
            "inputs": [
                {
                    "internalType": "contract IERC20",
                    "name": "_tokenStake",
                    "type": "address"
                },
                {
                    "internalType": "contract IERC20",
                    "name": "_tokenReward",
                    "type": "address"
                }
            ],
            "stateMutability": "nonpayable",
            "type": "constructor"
        },
        {
            "anonymous": false,
            "inputs": [
                {
                    "indexed": true,
                    "internalType": "address",
                    "name": "from",
                    "type": "address"
                },
                {
                    "indexed": false,
                    "internalType": "uint256",
                    "name": "amount",
                    "type": "uint256"
                }
            ],
            "name": "Claim",
            "type": "event"
        },
        {
            "anonymous": false,
            "inputs": [
                {
                    "indexed": true,
                    "internalType": "address",
                    "name": "from",
                    "type": "address"
                },
                {
                    "indexed": false,
                    "internalType": "uint256",
                    "name": "amount",
                    "type": "uint256"
                }
            ],
            "name": "Stake",
            "type": "event"
        },
        {
            "inputs": [
                {
                    "internalType": "uint256",
                    "name": "_amount",
                    "type": "uint256"
                }
            ],
            "name": "addPoolRewardStake",
            "outputs": [],
            "stateMutability": "nonpayable",
            "type": "function"
        },
        {
            "inputs": [],
            "name": "claimToken",
            "outputs": [],
            "stateMutability": "payable",
            "type": "function"
        },
        {
            "inputs": [],
            "name": "initialRewardRate",
            "outputs": [
                {
                    "internalType": "uint8",
                    "name": "",
                    "type": "uint8"
                }
            ],
            "stateMutability": "view",
            "type": "function"
        },
        {
            "inputs": [],
            "name": "owner",
            "outputs": [
                {
                    "internalType": "address",
                    "name": "",
                    "type": "address"
                }
            ],
            "stateMutability": "view",
            "type": "function"
        },
        {
            "inputs": [
                {
                    "internalType": "uint256",
                    "name": "_amount",
                    "type": "uint256"
                }
            ],
            "name": "stakeToken",
            "outputs": [],
            "stateMutability": "payable",
            "type": "function"
        },
        {
            "inputs": [],
            "name": "stakerCount",
            "outputs": [
                {
                    "internalType": "uint8",
                    "name": "",
                    "type": "uint8"
                }
            ],
            "stateMutability": "view",
            "type": "function"
        },
        {
            "inputs": [],
            "name": "timeLock",
            "outputs": [
                {
                    "internalType": "uint256",
                    "name": "",
                    "type": "uint256"
                }
            ],
            "stateMutability": "view",
            "type": "function"
        },
        {
            "inputs": [],
            "name": "totalRewardPool",
            "outputs": [
                {
                    "internalType": "uint256",
                    "name": "",
                    "type": "uint256"
                }
            ],
            "stateMutability": "view",
            "type": "function"
        },
        {
            "inputs": [],
            "name": "totalStake",
            "outputs": [
                {
                    "internalType": "uint256",
                    "name": "",
                    "type": "uint256"
                }
            ],
            "stateMutability": "view",
            "type": "function"
        }
    ],
    "bytecode": "0x60e06040523480156200001157600080fd5b5060405162001acc38038062001acc833981810160405281019062000037919062000129565b60016000819055503373ffffffffffffffffffffffffffffffffffffffff1660c08173ffffffffffffffffffffffffffffffffffffffff1660601b815250508173ffffffffffffffffffffffffffffffffffffffff1660808173ffffffffffffffffffffffffffffffffffffffff1660601b815250508073ffffffffffffffffffffffffffffffffffffffff1660a08173ffffffffffffffffffffffffffffffffffffffff1660601b8152505060146001806101000a81548160ff021916908360ff1602179055506301da9c006002819055505050620001cc565b6000815190506200012381620001b2565b92915050565b600080604083850312156200013d57600080fd5b60006200014d8582860162000112565b9250506020620001608582860162000112565b9150509250929050565b6000620001778262000192565b9050919050565b60006200018b826200016a565b9050919050565b600073ffffffffffffffffffffffffffffffffffffffff82169050919050565b620001bd816200017e565b8114620001c957600080fd5b50565b60805160601c60a05160601c60c05160601c6118b26200021a600039600081816107c701526107eb015260008181610716015261084301526000818161052501526109a001526118b26000f3fe6080604052600436106100865760003560e01c80638da5cb5b116100595780638da5cb5b14610116578063a74b826e14610141578063cda6b8471461016a578063d085835a14610186578063dff69787146101b157610086565b806309c85e241461008b5780634451d89f146100b65780635971aa21146100c05780638b0e9f3f146100eb575b600080fd5b34801561009757600080fd5b506100a06101dc565b6040516100ad91906113b0565b60405180910390f35b6100be6101e2565b005b3480156100cc57600080fd5b506100d56107ae565b6040516100e291906113cb565b60405180910390f35b3480156100f757600080fd5b506101006107bf565b60405161010d91906113b0565b60405180910390f35b34801561012257600080fd5b5061012b6107c5565b6040516101389190611233565b60405180910390f35b34801561014d57600080fd5b5061016860048036038101906101639190611067565b6107e9565b005b610184600480360381019061017f9190611067565b61090d565b005b34801561019257600080fd5b5061019b610c7f565b6040516101a891906113b0565b60405180910390f35b3480156101bd57600080fd5b506101c6610c85565b6040516101d391906113cb565b60405180910390f35b60045481565b600660003373ffffffffffffffffffffffffffffffffffffffff1673ffffffffffffffffffffffffffffffffffffffff16815260200190815260200160002060009054906101000a900460ff1661023857600080fd5b6002600054141561027e576040517f08c379a000000000000000000000000000000000000000000000000000000000815260040161027590611370565b60405180910390fd5b6002600081905550600080600090505b600560003373ffffffffffffffffffffffffffffffffffffffff1673ffffffffffffffffffffffffffffffffffffffff168152602001908152602001600020805490508110156106885742600560003373ffffffffffffffffffffffffffffffffffffffff1673ffffffffffffffffffffffffffffffffffffffff1681526020019081526020016000208281548110610350577f4e487b7100000000000000000000000000000000000000000000000000000000600052603260045260246000fd5b9060005260206000209060040201600201541080156103f757506000600560003373ffffffffffffffffffffffffffffffffffffffff1673ffffffffffffffffffffffffffffffffffffffff16815260200190815260200160002082815481106103e3577f4e487b7100000000000000000000000000000000000000000000000000000000600052603260045260246000fd5b906000526020600020906004020160030154115b1561067557600560003373ffffffffffffffffffffffffffffffffffffffff1673ffffffffffffffffffffffffffffffffffffffff1681526020019081526020016000208181548110610473577f4e487b7100000000000000000000000000000000000000000000000000000000600052603260045260246000fd5b906000526020600020906004020160030154826104909190611418565b91506000600560003373ffffffffffffffffffffffffffffffffffffffff1673ffffffffffffffffffffffffffffffffffffffff168152602001908152602001600020828154811061050b577f4e487b7100000000000000000000000000000000000000000000000000000000600052603260045260246000fd5b9060005260206000209060040201600301819055506105d37f000000000000000000000000000000000000000000000000000000000000000033600560003373ffffffffffffffffffffffffffffffffffffffff1673ffffffffffffffffffffffffffffffffffffffff16815260200190815260200160002084815481106105bc577f4e487b7100000000000000000000000000000000000000000000000000000000600052603260045260246000fd5b906000526020600020906004020160000154610c98565b600560003373ffffffffffffffffffffffffffffffffffffffff1673ffffffffffffffffffffffffffffffffffffffff168152602001908152602001600020818154811061064a577f4e487b7100000000000000000000000000000000000000000000000000000000600052603260045260246000fd5b9060005260206000209060040201600001546003600082825461066d91906114f9565b925050819055505b8080610680906115b5565b91505061028e565b50600081116106cc576040517f08c379a00000000000000000000000000000000000000000000000000000000081526004016106c390611310565b60405180910390fd5b806004541015610711576040517f08c379a000000000000000000000000000000000000000000000000000000000815260040161070890611390565b60405180910390fd5b61073c7f00000000000000000000000000000000000000000000000000000000000000003383610c98565b806004600082825461074e91906114f9565b925050819055503373ffffffffffffffffffffffffffffffffffffffff167f47cee97cb7acd717b3c0aa1435d004cd5b3c8c57d70dbceb4e4458bbd60e39d48260405161079b91906113b0565b60405180910390a2506001600081905550565b60018054906101000a900460ff1681565b60035481565b7f000000000000000000000000000000000000000000000000000000000000000081565b7f000000000000000000000000000000000000000000000000000000000000000073ffffffffffffffffffffffffffffffffffffffff163373ffffffffffffffffffffffffffffffffffffffff161461084157600080fd5b7f000000000000000000000000000000000000000000000000000000000000000073ffffffffffffffffffffffffffffffffffffffff166323b872dd3330846040518463ffffffff1660e01b815260040161089e9392919061124e565b602060405180830381600087803b1580156108b857600080fd5b505af11580156108cc573d6000803e3d6000fd5b505050506040513d601f19601f820116820180604052508101906108f0919061103e565b5080600460008282546109039190611418565b9250508190555050565b60026000541415610953576040517f08c379a000000000000000000000000000000000000000000000000000000000815260040161094a90611370565b60405180910390fd5b60026000819055506000811161099e576040517f08c379a0000000000000000000000000000000000000000000000000000000008152600401610995906112d0565b60405180910390fd5b7f000000000000000000000000000000000000000000000000000000000000000073ffffffffffffffffffffffffffffffffffffffff166323b872dd3330846040518463ffffffff1660e01b81526004016109fb9392919061124e565b602060405180830381600087803b158015610a1557600080fd5b505af1158015610a29573d6000803e3d6000fd5b505050506040513d601f19601f82011682018060405250810190610a4d919061103e565b506001600081819054906101000a900460ff1680929190610a6d906115fe565b91906101000a81548160ff021916908360ff160217905550508060036000828254610a989190611418565b925050819055506001600660003373ffffffffffffffffffffffffffffffffffffffff1673ffffffffffffffffffffffffffffffffffffffff16815260200190815260200160002060006101000a81548160ff0219169083151502179055503360076000600160009054906101000a900460ff1660ff1660ff16815260200190815260200160002060006101000a81548173ffffffffffffffffffffffffffffffffffffffff021916908373ffffffffffffffffffffffffffffffffffffffff160217905550600560003373ffffffffffffffffffffffffffffffffffffffff1673ffffffffffffffffffffffffffffffffffffffff168152602001908152602001600020604051806080016040528083815260200142815260200160025442610bc29190611418565b8152602001610bd084610d1e565b81525090806001815401808255809150506001900390600052602060002090600402016000909190919091506000820151816000015560208201518160010155604082015181600201556060820151816003015550503373ffffffffffffffffffffffffffffffffffffffff167febedb8b3c678666e7f36970bc8f57abf6d8fa2e828c0da91ea5b75bf68ed101a82604051610c6c91906113b0565b60405180910390a2600160008190555050565b60025481565b600160009054906101000a900460ff1681565b610d198363a9059cbb60e01b8484604051602401610cb7929190611285565b604051602081830303815290604052907bffffffffffffffffffffffffffffffffffffffffffffffffffffffff19166020820180517bffffffffffffffffffffffffffffffffffffffffffffffffffffffff8381831617835250505050610d97565b505050565b60008060005b600c811015610d8d57618ca0601e8260018054906101000a900460ff1660ff16610d4e91906114f9565b86610d59919061149f565b610d63919061149f565b610d6d919061146e565b82610d789190611418565b91508080610d85906115b5565b915050610d24565b5080915050919050565b6000610df9826040518060400160405280602081526020017f5361666545524332303a206c6f772d6c6576656c2063616c6c206661696c65648152508573ffffffffffffffffffffffffffffffffffffffff16610e5e9092919063ffffffff16565b9050600081511115610e595780806020019051810190610e19919061103e565b610e58576040517f08c379a0000000000000000000000000000000000000000000000000000000008152600401610e4f90611350565b60405180910390fd5b5b505050565b6060610e6d8484600085610e76565b90509392505050565b606082471015610ebb576040517f08c379a0000000000000000000000000000000000000000000000000000000008152600401610eb2906112f0565b60405180910390fd5b610ec485610f8a565b610f03576040517f08c379a0000000000000000000000000000000000000000000000000000000008152600401610efa90611330565b60405180910390fd5b6000808673ffffffffffffffffffffffffffffffffffffffff168587604051610f2c919061121c565b60006040518083038185875af1925050503d8060008114610f69576040519150601f19603f3d011682016040523d82523d6000602084013e610f6e565b606091505b5091509150610f7e828286610fad565b92505050949350505050565b6000808273ffffffffffffffffffffffffffffffffffffffff163b119050919050565b60608315610fbd5782905061100d565b600083511115610fd05782518084602001fd5b816040517f08c379a000000000000000000000000000000000000000000000000000000000815260040161100491906112ae565b60405180910390fd5b9392505050565b6000815190506110238161184e565b92915050565b60008135905061103881611865565b92915050565b60006020828403121561105057600080fd5b600061105e84828501611014565b91505092915050565b60006020828403121561107957600080fd5b600061108784828501611029565b91505092915050565b6110998161152d565b82525050565b60006110aa826113e6565b6110b481856113fc565b93506110c4818560208601611582565b80840191505092915050565b60006110db826113f1565b6110e58185611407565b93506110f5818560208601611582565b6110fe81611686565b840191505092915050565b6000611116601e83611407565b915061112182611697565b602082019050919050565b6000611139602683611407565b9150611144826116c0565b604082019050919050565b600061115c602583611407565b91506111678261170f565b604082019050919050565b600061117f601d83611407565b915061118a8261175e565b602082019050919050565b60006111a2602a83611407565b91506111ad82611787565b604082019050919050565b60006111c5601f83611407565b91506111d0826117d6565b602082019050919050565b60006111e8602883611407565b91506111f3826117ff565b604082019050919050565b6112078161156b565b82525050565b61121681611575565b82525050565b6000611228828461109f565b915081905092915050565b60006020820190506112486000830184611090565b92915050565b60006060820190506112636000830186611090565b6112706020830185611090565b61127d60408301846111fe565b949350505050565b600060408201905061129a6000830185611090565b6112a760208301846111fe565b9392505050565b600060208201905081810360008301526112c881846110d0565b905092915050565b600060208201905081810360008301526112e981611109565b9050919050565b600060208201905081810360008301526113098161112c565b9050919050565b600060208201905081810360008301526113298161114f565b9050919050565b6000602082019050818103600083015261134981611172565b9050919050565b6000602082019050818103600083015261136981611195565b9050919050565b60006020820190508181036000830152611389816111b8565b9050919050565b600060208201905081810360008301526113a9816111db565b9050919050565b60006020820190506113c560008301846111fe565b92915050565b60006020820190506113e0600083018461120d565b92915050565b600081519050919050565b600081519050919050565b600081905092915050565b600082825260208201905092915050565b60006114238261156b565b915061142e8361156b565b9250827fffffffffffffffffffffffffffffffffffffffffffffffffffffffffffffffff0382111561146357611462611628565b5b828201905092915050565b60006114798261156b565b91506114848361156b565b92508261149457611493611657565b5b828204905092915050565b60006114aa8261156b565b91506114b58361156b565b9250817fffffffffffffffffffffffffffffffffffffffffffffffffffffffffffffffff04831182151516156114ee576114ed611628565b5b828202905092915050565b60006115048261156b565b915061150f8361156b565b92508282101561152257611521611628565b5b828203905092915050565b60006115388261154b565b9050919050565b60008115159050919050565b600073ffffffffffffffffffffffffffffffffffffffff82169050919050565b6000819050919050565b600060ff82169050919050565b60005b838110156115a0578082015181840152602081019050611585565b838111156115af576000848401525b50505050565b60006115c08261156b565b91507fffffffffffffffffffffffffffffffffffffffffffffffffffffffffffffffff8214156115f3576115f2611628565b5b600182019050919050565b600061160982611575565b915060ff82141561161d5761161c611628565b5b600182019050919050565b7f4e487b7100000000000000000000000000000000000000000000000000000000600052601160045260246000fd5b7f4e487b7100000000000000000000000000000000000000000000000000000000600052601260045260246000fd5b6000601f19601f8301169050919050565b7f5f616d6f756e74206d7573742062652067726561746572207468616e20300000600082015250565b7f416464726573733a20696e73756666696369656e742062616c616e636520666f60008201527f722063616c6c0000000000000000000000000000000000000000000000000000602082015250565b7f4e6f7420656e6f7567682074696d6520746f20636c61696d207265776172642060008201527f746f6b656e000000000000000000000000000000000000000000000000000000602082015250565b7f416464726573733a2063616c6c20746f206e6f6e2d636f6e7472616374000000600082015250565b7f5361666545524332303a204552433230206f7065726174696f6e20646964206e60008201527f6f74207375636365656400000000000000000000000000000000000000000000602082015250565b7f5265656e7472616e637947756172643a207265656e7472616e742063616c6c00600082015250565b7f4e6f7420656e6f7567682072657761726420746f6b656e20696e20706f6f6c2060008201527f746f20636c61696d000000000000000000000000000000000000000000000000602082015250565b6118578161153f565b811461186257600080fd5b50565b61186e8161156b565b811461187957600080fd5b5056fea2646970667358221220a7459f147c9d9757b637fb9095bbeb4556228aa8f239cd782bf81a65c04f2d9464736f6c63430008010033",
    "linkReferences": {},
    "deployedLinkReferences": {}
}